{
	"data": {
		"bytecode": {
			"linkReferences": {},
			"object": "60806040526658d15e176280006004553480156019575f80fd5b5060405161137e38038061137e8339810160408190526036916067565b60015f55600580546001600160a01b039092166001600160a01b031992831617905560038054909116331790556092565b5f602082840312156076575f80fd5b81516001600160a01b0381168114608b575f80fd5b9392505050565b6112df8061009f5f395ff3fe608060405234801561000f575f80fd5b5060043610610090575f3560e01c806389bfd38f1161006357806389bfd38f146100f25780638f0af0f9146101075780639f37092a1461011a578063f2a7a2b41461012d578063f9319c531461014d575f80fd5b806312e85585146100945780632ad8a220146100aa5780633b1b1ad0146100d55780634d757a1c146100ea575b5f80fd5b6004546040519081526020015b60405180910390f35b6005546100bd906001600160a01b031681565b6040516001600160a01b0390911681526020016100a1565b6100dd610155565b6040516100a191906110d2565b6100dd6102e2565b61010561010036600461113a565b61049f565b005b61010561011536600461113a565b6107cd565b61010561012836600461116a565b610abd565b61014061013b366004611192565b610d57565b6040516100a191906111a9565b6100dd610dd2565b60605f61016160015490565b90505f61016d60025490565b60015461017a91906111d1565b90505f808267ffffffffffffffff811115610197576101976111e4565b6040519080825280602002602001820160405280156101d057816020015b6101bd611041565b8152602001906001900390816101b55790505b5090505f5b848110156102d9573060065f6101ec8460016111f8565b815260208101919091526040015f20600401546001600160a01b0316036102d1575f60068161021c8460016111f8565b815260208082019290925260409081015f90812054808252600680855291839020835160e0810185528154815260018201546001600160a01b039081169682019690965260028201549481019490945260038101548516606085015260048101549094166080840152600584015460a084015292015460ff16151560c082015284519192509081908590879081106102b6576102b661120b565b60209081029190910101526102cc6001866111f8565b945050505b6001016101d5565b50949350505050565b60605f6102ee60015490565b90505f805f5b83811015610342573360065f61030b8460016111f8565b815260208101919091526040015f20600401546001600160a01b03160361033a576103376001846111f8565b92505b6001016102f4565b505f8267ffffffffffffffff81111561035d5761035d6111e4565b60405190808252806020026020018201604052801561039657816020015b610383611041565b81526020019060019003908161037b5790505b5090505f5b848110156102d9573360065f6103b28460016111f8565b815260208101919091526040015f20600401546001600160a01b031603610497575f6006816103e28460016111f8565b815260208082019290925260409081015f90812054808252600680855291839020835160e0810185528154815260018201546001600160a01b039081169682019690965260028201549481019490945260038101548516606085015260048101549094166080840152600584015460a084015292015460ff16151560c0820152845191925090819085908790811061047c5761047c61120b565b60209081029190910101526104926001866111f8565b945050505b60010161039b565b6104a7610f8f565b805f036104c757604051636f372b6160e11b815260040160405180910390fd5b60048054600554604051636eb1769f60e11b8152339381019390935230602484015290916001600160a01b039091169063dd62ed3e90604401602060405180830381865afa15801561051b573d5f803e3d5ffd5b505050506040513d601f19601f8201168201806040525081019061053f919061121f565b101561055e57604051630904fe8360e41b815260040160405180910390fd5b600554600480546040516323b872dd60e01b81526001600160a01b03909316926323b872dd92610592923392309201611236565b6020604051808303815f875af11580156105ae573d5f803e3d5ffd5b505050506040513d601f19601f820116820180604052508101906105d2919061125a565b506105e1600180546001019055565b5f6105eb60015490565b6040805160e0810182528281526001600160a01b0380881660208084018281528486018a81523360608701818152306080890181815260a08a018e81525f60c08c018181528e82526006998a9052908d90209b518c55965160018c018054918c166001600160a01b0319928316179055955160028c0155925160038b018054918b16918716919091179055516004808b01805492909a169190951617909755516005880155915195909201805495151560ff199096169590951790945593516323b872dd60e01b8152949550936323b872dd936106cc939291899101611236565b5f604051808303815f87803b1580156106e3575f80fd5b505af11580156106f5573d5f803e3d5ffd5b5050505082846001600160a01b0316827ff8551f8be25732324fcda411a126b3c851e038b0ff8d097a3951dded3772f43f3330875f60405161073a9493929190611280565b60405180910390a46005546003546004805460405163a9059cbb60e01b81526001600160a01b0393841692810192909252602482015291169063a9059cbb906044015b6020604051808303815f875af1158015610799573d5f803e3d5ffd5b505050506040513d601f19601f820116820180604052508101906107bd919061125a565b50506107c860015f55565b505050565b6107d5610f8f565b5f828152600660205260409020600401546001600160a01b0316331461080e576040516384bdb6f960e01b815260040160405180910390fd5b60048054600554604051636eb1769f60e11b8152339381019390935230602484015290916001600160a01b039091169063dd62ed3e90604401602060405180830381865afa158015610862573d5f803e3d5ffd5b505050506040513d601f19601f82011682018060405250810190610886919061121f565b10156108a557604051630904fe8360e41b815260040160405180910390fd5b60405163a22cb46560e01b8152306004820152600160248201526001600160a01b0384169063a22cb465906044015f604051808303815f87803b1580156108ea575f80fd5b505af11580156108fc573d5f803e3d5ffd5b5050600554600480546040516323b872dd60e01b81526001600160a01b0390931694506323b872dd935061093592339230929101611236565b6020604051808303815f875af1158015610951573d5f803e3d5ffd5b505050506040513d601f19601f82011682018060405250810190610975919061125a565b505f828152600660208190526040909120908101805460ff19169055600581018290556003810180546001600160a01b0319908116331790915560049091018054909116301790556109c76002610feb565b5f82815260066020526040908190206002015490516323b872dd60e01b81526001600160a01b038516906323b872dd90610a0990339030908690600401611236565b5f604051808303815f87803b158015610a20575f80fd5b505af1158015610a32573d5f803e3d5ffd5b5050505080846001600160a01b03167f052679d6cf973dff612de0d67ad1642e7b8b401dcb1c41ea86bf35b82ac6bf883330865f604051610a769493929190611280565b60405180910390a36005546003546004805460405163a9059cbb60e01b81526001600160a01b0393841692810192909252602482015291169063a9059cbb9060440161077d565b610ac5610f8f565b5f8181526006602052604090819020600580820154600283015460039093015491549351636eb1769f60e11b815233600482015230602482015290936001600160a01b0392831692859291169063dd62ed3e90604401602060405180830381865afa158015610b36573d5f803e3d5ffd5b505050506040513d601f19601f82011682018060405250810190610b5a919061121f565b1015610b7957604051630904fe8360e41b815260040160405180910390fd5b6005546040516323b872dd60e01b81526001600160a01b03909116906323b872dd90610bad90339030908890600401611236565b6020604051808303815f875af1158015610bc9573d5f803e3d5ffd5b505050506040513d601f19601f82011682018060405250810190610bed919061125a565b506040516323b872dd60e01b81526001600160a01b038616906323b872dd90610c1e90309033908790600401611236565b5f604051808303815f87803b158015610c35575f80fd5b505af1158015610c47573d5f803e3d5ffd5b505060055460405163a9059cbb60e01b81526001600160a01b03858116600483015260248201889052909116925063a9059cbb91506044016020604051808303815f875af1158015610c9b573d5f803e3d5ffd5b505050506040513d601f19601f82011682018060405250810190610cbf919061125a565b505f8481526006602081905260409091206004810180546001600160a01b0319163317905501805460ff19166001179055610cfe600280546001019055565b81856001600160a01b03167f9a9f9faf9d964b2fb1888cdf05202baf5a1b99d45f7afd6a5e062ac544b3c1503033876001604051610d3f9493929190611280565b60405180910390a3505050610d5360015f55565b5050565b610d5f611041565b505f90815260066020818152604092839020835160e0810185528154815260018201546001600160a01b039081169382019390935260028201549481019490945260038101548216606085015260048101549091166080840152600581015460a0840152015460ff16151560c082015290565b60605f610dde60015490565b90505f805f5b83811015610e32573360065f610dfb8460016111f8565b815260208101919091526040015f20600301546001600160a01b031603610e2a57610e276001846111f8565b92505b600101610de4565b505f8267ffffffffffffffff811115610e4d57610e4d6111e4565b604051908082528060200260200182016040528015610e8657816020015b610e73611041565b815260200190600190039081610e6b5790505b5090505f5b848110156102d9573360065f610ea28460016111f8565b815260208101919091526040015f20600301546001600160a01b031603610f87575f600681610ed28460016111f8565b815260208082019290925260409081015f90812054808252600680855291839020835160e0810185528154815260018201546001600160a01b039081169682019690965260028201549481019490945260038101548516606085015260048101549094166080840152600584015460a084015292015460ff16151560c08201528451919250908190859087908110610f6c57610f6c61120b565b6020908102919091010152610f826001866111f8565b945050505b600101610e8b565b60025f5403610fe55760405162461bcd60e51b815260206004820152601f60248201527f5265656e7472616e637947756172643a207265656e7472616e742063616c6c0060448201526064015b60405180910390fd5b60025f55565b80548061103a5760405162461bcd60e51b815260206004820152601b60248201527f436f756e7465723a2064656372656d656e74206f766572666c6f7700000000006044820152606401610fdc565b5f19019055565b6040805160e0810182525f80825260208201819052918101829052606081018290526080810182905260a0810182905260c081019190915290565b805182526020808201516001600160a01b0390811691840191909152604080830151908401526060808301518216908401526080808301519091169083015260a0808201519083015260c0908101511515910152565b602080825282518282018190525f918401906040840190835b81811015611114576110fe83855161107c565b6020939093019260e092909201916001016110eb565b509095945050505050565b80356001600160a01b0381168114611135575f80fd5b919050565b5f805f6060848603121561114c575f80fd5b6111558461111f565b95602085013595506040909401359392505050565b5f806040838503121561117b575f80fd5b6111848361111f565b946020939093013593505050565b5f602082840312156111a2575f80fd5b5035919050565b60e081016111b7828461107c565b92915050565b634e487b7160e01b5f52601160045260245ffd5b818103818111156111b7576111b76111bd565b634e487b7160e01b5f52604160045260245ffd5b808201808211156111b7576111b76111bd565b634e487b7160e01b5f52603260045260245ffd5b5f6020828403121561122f575f80fd5b5051919050565b6001600160a01b039384168152919092166020820152604081019190915260600190565b5f6020828403121561126a575f80fd5b81518015158114611279575f80fd5b9392505050565b6001600160a01b039485168152929093166020830152604082015290151560608201526080019056fea264697066735822122025ec81b5b11502a43a5914c90af89f0599a77190cc3c1238a95148ec49421bb564736f6c634300081a0033",
			"opcodes": "PUSH1 0x80 PUSH1 0x40 MSTORE PUSH7 0x58D15E17628000 PUSH1 0x4 SSTORE CALLVALUE DUP1 ISZERO PUSH1 0x19 JUMPI PUSH0 DUP1 REVERT JUMPDEST POP PUSH1 0x40 MLOAD PUSH2 0x137E CODESIZE SUB DUP1 PUSH2 0x137E DUP4 CODECOPY DUP2 ADD PUSH1 0x40 DUP2 SWAP1 MSTORE PUSH1 0x36 SWAP2 PUSH1 0x67 JUMP JUMPDEST PUSH1 0x1 PUSH0 SSTORE PUSH1 0x5 DUP1 SLOAD PUSH1 0x1 PUSH1 0x1 PUSH1 0xA0 SHL SUB SWAP1 SWAP3 AND PUSH1 0x1 PUSH1 0x1 PUSH1 0xA0 SHL SUB NOT SWAP3 DUP4 AND OR SWAP1 SSTORE PUSH1 0x3 DUP1 SLOAD SWAP1 SWAP2 AND CALLER OR SWAP1 SSTORE PUSH1 0x92 JUMP JUMPDEST PUSH0 PUSH1 0x20 DUP3 DUP5 SUB SLT ISZERO PUSH1 0x76 JUMPI PUSH0 DUP1 REVERT JUMPDEST DUP2 MLOAD PUSH1 0x1 PUSH1 0x1 PUSH1 0xA0 SHL SUB DUP2 AND DUP2 EQ PUSH1 0x8B JUMPI PUSH0 DUP1 REVERT JUMPDEST SWAP4 SWAP3 POP POP POP JUMP JUMPDEST PUSH2 0x12DF DUP1 PUSH2 0x9F PUSH0 CODECOPY PUSH0 RETURN INVALID PUSH1 0x80 PUSH1 0x40 MSTORE CALLVALUE DUP1 ISZERO PUSH2 0xF JUMPI PUSH0 DUP1 REVERT JUMPDEST POP PUSH1 0x4 CALLDATASIZE LT PUSH2 0x90 JUMPI PUSH0 CALLDATALOAD PUSH1 0xE0 SHR DUP1 PUSH4 0x89BFD38F GT PUSH2 0x63 JUMPI DUP1 PUSH4 0x89BFD38F EQ PUSH2 0xF2 JUMPI DUP1 PUSH4 0x8F0AF0F9 EQ PUSH2 0x107 JUMPI DUP1 PUSH4 0x9F37092A EQ PUSH2 0x11A JUMPI DUP1 PUSH4 0xF2A7A2B4 EQ PUSH2 0x12D JUMPI DUP1 PUSH4 0xF9319C53 EQ PUSH2 0x14D JUMPI PUSH0 DUP1 REVERT JUMPDEST DUP1 PUSH4 0x12E85585 EQ PUSH2 0x94 JUMPI DUP1 PUSH4 0x2AD8A220 EQ PUSH2 0xAA JUMPI DUP1 PUSH4 0x3B1B1AD0 EQ PUSH2 0xD5 JUMPI DUP1 PUSH4 0x4D757A1C EQ PUSH2 0xEA JUMPI JUMPDEST PUSH0 DUP1 REVERT JUMPDEST PUSH1 0x4 SLOAD PUSH1 0x40 MLOAD SWAP1 DUP2 MSTORE PUSH1 0x20 ADD JUMPDEST PUSH1 0x40 MLOAD DUP1 SWAP2 SUB SWAP1 RETURN JUMPDEST PUSH1 0x5 SLOAD PUSH2 0xBD SWAP1 PUSH1 0x1 PUSH1 0x1 PUSH1 0xA0 SHL SUB AND DUP2 JUMP JUMPDEST PUSH1 0x40 MLOAD PUSH1 0x1 PUSH1 0x1 PUSH1 0xA0 SHL SUB SWAP1 SWAP2 AND DUP2 MSTORE PUSH1 0x20 ADD PUSH2 0xA1 JUMP JUMPDEST PUSH2 0xDD PUSH2 0x155 JUMP JUMPDEST PUSH1 0x40 MLOAD PUSH2 0xA1 SWAP2 SWAP1 PUSH2 0x10D2 JUMP JUMPDEST PUSH2 0xDD PUSH2 0x2E2 JUMP JUMPDEST PUSH2 0x105 PUSH2 0x100 CALLDATASIZE PUSH1 0x4 PUSH2 0x113A JUMP JUMPDEST PUSH2 0x49F JUMP JUMPDEST STOP JUMPDEST PUSH2 0x105 PUSH2 0x115 CALLDATASIZE PUSH1 0x4 PUSH2 0x113A JUMP JUMPDEST PUSH2 0x7CD JUMP JUMPDEST PUSH2 0x105 PUSH2 0x128 CALLDATASIZE PUSH1 0x4 PUSH2 0x116A JUMP JUMPDEST PUSH2 0xABD JUMP JUMPDEST PUSH2 0x140 PUSH2 0x13B CALLDATASIZE PUSH1 0x4 PUSH2 0x1192 JUMP JUMPDEST PUSH2 0xD57 JUMP JUMPDEST PUSH1 0x40 MLOAD PUSH2 0xA1 SWAP2 SWAP1 PUSH2 0x11A9 JUMP JUMPDEST PUSH2 0xDD PUSH2 0xDD2 JUMP JUMPDEST PUSH1 0x60 PUSH0 PUSH2 0x161 PUSH1 0x1 SLOAD SWAP1 JUMP JUMPDEST SWAP1 POP PUSH0 PUSH2 0x16D PUSH1 0x2 SLOAD SWAP1 JUMP JUMPDEST PUSH1 0x1 SLOAD PUSH2 0x17A SWAP2 SWAP1 PUSH2 0x11D1 JUMP JUMPDEST SWAP1 POP PUSH0 DUP1 DUP3 PUSH8 0xFFFFFFFFFFFFFFFF DUP2 GT ISZERO PUSH2 0x197 JUMPI PUSH2 0x197 PUSH2 0x11E4 JUMP JUMPDEST PUSH1 0x40 MLOAD SWAP1 DUP1 DUP3 MSTORE DUP1 PUSH1 0x20 MUL PUSH1 0x20 ADD DUP3 ADD PUSH1 0x40 MSTORE DUP1 ISZERO PUSH2 0x1D0 JUMPI DUP2 PUSH1 0x20 ADD JUMPDEST PUSH2 0x1BD PUSH2 0x1041 JUMP JUMPDEST DUP2 MSTORE PUSH1 0x20 ADD SWAP1 PUSH1 0x1 SWAP1 SUB SWAP1 DUP2 PUSH2 0x1B5 JUMPI SWAP1 POP JUMPDEST POP SWAP1 POP PUSH0 JUMPDEST DUP5 DUP2 LT ISZERO PUSH2 0x2D9 JUMPI ADDRESS PUSH1 0x6 PUSH0 PUSH2 0x1EC DUP5 PUSH1 0x1 PUSH2 0x11F8 JUMP JUMPDEST DUP2 MSTORE PUSH1 0x20 DUP2 ADD SWAP2 SWAP1 SWAP2 MSTORE PUSH1 0x40 ADD PUSH0 KECCAK256 PUSH1 0x4 ADD SLOAD PUSH1 0x1 PUSH1 0x1 PUSH1 0xA0 SHL SUB AND SUB PUSH2 0x2D1 JUMPI PUSH0 PUSH1 0x6 DUP2 PUSH2 0x21C DUP5 PUSH1 0x1 PUSH2 0x11F8 JUMP JUMPDEST DUP2 MSTORE PUSH1 0x20 DUP1 DUP3 ADD SWAP3 SWAP1 SWAP3 MSTORE PUSH1 0x40 SWAP1 DUP2 ADD PUSH0 SWAP1 DUP2 KECCAK256 SLOAD DUP1 DUP3 MSTORE PUSH1 0x6 DUP1 DUP6 MSTORE SWAP2 DUP4 SWAP1 KECCAK256 DUP4 MLOAD PUSH1 0xE0 DUP2 ADD DUP6 MSTORE DUP2 SLOAD DUP2 MSTORE PUSH1 0x1 DUP3 ADD SLOAD PUSH1 0x1 PUSH1 0x1 PUSH1 0xA0 SHL SUB SWAP1 DUP2 AND SWAP7 DUP3 ADD SWAP7 SWAP1 SWAP7 MSTORE PUSH1 0x2 DUP3 ADD SLOAD SWAP5 DUP2 ADD SWAP5 SWAP1 SWAP5 MSTORE PUSH1 0x3 DUP2 ADD SLOAD DUP6 AND PUSH1 0x60 DUP6 ADD MSTORE PUSH1 0x4 DUP2 ADD SLOAD SWAP1 SWAP5 AND PUSH1 0x80 DUP5 ADD MSTORE PUSH1 0x5 DUP5 ADD SLOAD PUSH1 0xA0 DUP5 ADD MSTORE SWAP3 ADD SLOAD PUSH1 0xFF AND ISZERO ISZERO PUSH1 0xC0 DUP3 ADD MSTORE DUP5 MLOAD SWAP2 SWAP3 POP SWAP1 DUP2 SWAP1 DUP6 SWAP1 DUP8 SWAP1 DUP2 LT PUSH2 0x2B6 JUMPI PUSH2 0x2B6 PUSH2 0x120B JUMP JUMPDEST PUSH1 0x20 SWAP1 DUP2 MUL SWAP2 SWAP1 SWAP2 ADD ADD MSTORE PUSH2 0x2CC PUSH1 0x1 DUP7 PUSH2 0x11F8 JUMP JUMPDEST SWAP5 POP POP POP JUMPDEST PUSH1 0x1 ADD PUSH2 0x1D5 JUMP JUMPDEST POP SWAP5 SWAP4 POP POP POP POP JUMP JUMPDEST PUSH1 0x60 PUSH0 PUSH2 0x2EE PUSH1 0x1 SLOAD SWAP1 JUMP JUMPDEST SWAP1 POP PUSH0 DUP1 PUSH0 JUMPDEST DUP4 DUP2 LT ISZERO PUSH2 0x342 JUMPI CALLER PUSH1 0x6 PUSH0 PUSH2 0x30B DUP5 PUSH1 0x1 PUSH2 0x11F8 JUMP JUMPDEST DUP2 MSTORE PUSH1 0x20 DUP2 ADD SWAP2 SWAP1 SWAP2 MSTORE PUSH1 0x40 ADD PUSH0 KECCAK256 PUSH1 0x4 ADD SLOAD PUSH1 0x1 PUSH1 0x1 PUSH1 0xA0 SHL SUB AND SUB PUSH2 0x33A JUMPI PUSH2 0x337 PUSH1 0x1 DUP5 PUSH2 0x11F8 JUMP JUMPDEST SWAP3 POP JUMPDEST PUSH1 0x1 ADD PUSH2 0x2F4 JUMP JUMPDEST POP PUSH0 DUP3 PUSH8 0xFFFFFFFFFFFFFFFF DUP2 GT ISZERO PUSH2 0x35D JUMPI PUSH2 0x35D PUSH2 0x11E4 JUMP JUMPDEST PUSH1 0x40 MLOAD SWAP1 DUP1 DUP3 MSTORE DUP1 PUSH1 0x20 MUL PUSH1 0x20 ADD DUP3 ADD PUSH1 0x40 MSTORE DUP1 ISZERO PUSH2 0x396 JUMPI DUP2 PUSH1 0x20 ADD JUMPDEST PUSH2 0x383 PUSH2 0x1041 JUMP JUMPDEST DUP2 MSTORE PUSH1 0x20 ADD SWAP1 PUSH1 0x1 SWAP1 SUB SWAP1 DUP2 PUSH2 0x37B JUMPI SWAP1 POP JUMPDEST POP SWAP1 POP PUSH0 JUMPDEST DUP5 DUP2 LT ISZERO PUSH2 0x2D9 JUMPI CALLER PUSH1 0x6 PUSH0 PUSH2 0x3B2 DUP5 PUSH1 0x1 PUSH2 0x11F8 JUMP JUMPDEST DUP2 MSTORE PUSH1 0x20 DUP2 ADD SWAP2 SWAP1 SWAP2 MSTORE PUSH1 0x40 ADD PUSH0 KECCAK256 PUSH1 0x4 ADD SLOAD PUSH1 0x1 PUSH1 0x1 PUSH1 0xA0 SHL SUB AND SUB PUSH2 0x497 JUMPI PUSH0 PUSH1 0x6 DUP2 PUSH2 0x3E2 DUP5 PUSH1 0x1 PUSH2 0x11F8 JUMP JUMPDEST DUP2 MSTORE PUSH1 0x20 DUP1 DUP3 ADD SWAP3 SWAP1 SWAP3 MSTORE PUSH1 0x40 SWAP1 DUP2 ADD PUSH0 SWAP1 DUP2 KECCAK256 SLOAD DUP1 DUP3 MSTORE PUSH1 0x6 DUP1 DUP6 MSTORE SWAP2 DUP4 SWAP1 KECCAK256 DUP4 MLOAD PUSH1 0xE0 DUP2 ADD DUP6 MSTORE DUP2 SLOAD DUP2 MSTORE PUSH1 0x1 DUP3 ADD SLOAD PUSH1 0x1 PUSH1 0x1 PUSH1 0xA0 SHL SUB SWAP1 DUP2 AND SWAP7 DUP3 ADD SWAP7 SWAP1 SWAP7 MSTORE PUSH1 0x2 DUP3 ADD SLOAD SWAP5 DUP2 ADD SWAP5 SWAP1 SWAP5 MSTORE PUSH1 0x3 DUP2 ADD SLOAD DUP6 AND PUSH1 0x60 DUP6 ADD MSTORE PUSH1 0x4 DUP2 ADD SLOAD SWAP1 SWAP5 AND PUSH1 0x80 DUP5 ADD MSTORE PUSH1 0x5 DUP5 ADD SLOAD PUSH1 0xA0 DUP5 ADD MSTORE SWAP3 ADD SLOAD PUSH1 0xFF AND ISZERO ISZERO PUSH1 0xC0 DUP3 ADD MSTORE DUP5 MLOAD SWAP2 SWAP3 POP SWAP1 DUP2 SWAP1 DUP6 SWAP1 DUP8 SWAP1 DUP2 LT PUSH2 0x47C JUMPI PUSH2 0x47C PUSH2 0x120B JUMP JUMPDEST PUSH1 0x20 SWAP1 DUP2 MUL SWAP2 SWAP1 SWAP2 ADD ADD MSTORE PUSH2 0x492 PUSH1 0x1 DUP7 PUSH2 0x11F8 JUMP JUMPDEST SWAP5 POP POP POP JUMPDEST PUSH1 0x1 ADD PUSH2 0x39B JUMP JUMPDEST PUSH2 0x4A7 PUSH2 0xF8F JUMP JUMPDEST DUP1 PUSH0 SUB PUSH2 0x4C7 JUMPI PUSH1 0x40 MLOAD PUSH4 0x6F372B61 PUSH1 0xE1 SHL DUP2 MSTORE PUSH1 0x4 ADD PUSH1 0x40 MLOAD DUP1 SWAP2 SUB SWAP1 REVERT JUMPDEST PUSH1 0x4 DUP1 SLOAD PUSH1 0x5 SLOAD PUSH1 0x40 MLOAD PUSH4 0x6EB1769F PUSH1 0xE1 SHL DUP2 MSTORE CALLER SWAP4 DUP2 ADD SWAP4 SWAP1 SWAP4 MSTORE ADDRESS PUSH1 0x24 DUP5 ADD MSTORE SWAP1 SWAP2 PUSH1 0x1 PUSH1 0x1 PUSH1 0xA0 SHL SUB SWAP1 SWAP2 AND SWAP1 PUSH4 0xDD62ED3E SWAP1 PUSH1 0x44 ADD PUSH1 0x20 PUSH1 0x40 MLOAD DUP1 DUP4 SUB DUP2 DUP7 GAS STATICCALL ISZERO DUP1 ISZERO PUSH2 0x51B JUMPI RETURNDATASIZE PUSH0 DUP1 RETURNDATACOPY RETURNDATASIZE PUSH0 REVERT JUMPDEST POP POP POP POP PUSH1 0x40 MLOAD RETURNDATASIZE PUSH1 0x1F NOT PUSH1 0x1F DUP3 ADD AND DUP3 ADD DUP1 PUSH1 0x40 MSTORE POP DUP2 ADD SWAP1 PUSH2 0x53F SWAP2 SWAP1 PUSH2 0x121F JUMP JUMPDEST LT ISZERO PUSH2 0x55E JUMPI PUSH1 0x40 MLOAD PUSH4 0x904FE83 PUSH1 0xE4 SHL DUP2 MSTORE PUSH1 0x4 ADD PUSH1 0x40 MLOAD DUP1 SWAP2 SUB SWAP1 REVERT JUMPDEST PUSH1 0x5 SLOAD PUSH1 0x4 DUP1 SLOAD PUSH1 0x40 MLOAD PUSH4 0x23B872DD PUSH1 0xE0 SHL DUP2 MSTORE PUSH1 0x1 PUSH1 0x1 PUSH1 0xA0 SHL SUB SWAP1 SWAP4 AND SWAP3 PUSH4 0x23B872DD SWAP3 PUSH2 0x592 SWAP3 CALLER SWAP3 ADDRESS SWAP3 ADD PUSH2 0x1236 JUMP JUMPDEST PUSH1 0x20 PUSH1 0x40 MLOAD DUP1 DUP4 SUB DUP2 PUSH0 DUP8 GAS CALL ISZERO DUP1 ISZERO PUSH2 0x5AE JUMPI RETURNDATASIZE PUSH0 DUP1 RETURNDATACOPY RETURNDATASIZE PUSH0 REVERT JUMPDEST POP POP POP POP PUSH1 0x40 MLOAD RETURNDATASIZE PUSH1 0x1F NOT PUSH1 0x1F DUP3 ADD AND DUP3 ADD DUP1 PUSH1 0x40 MSTORE POP DUP2 ADD SWAP1 PUSH2 0x5D2 SWAP2 SWAP1 PUSH2 0x125A JUMP JUMPDEST POP PUSH2 0x5E1 PUSH1 0x1 DUP1 SLOAD PUSH1 0x1 ADD SWAP1 SSTORE JUMP JUMPDEST PUSH0 PUSH2 0x5EB PUSH1 0x1 SLOAD SWAP1 JUMP JUMPDEST PUSH1 0x40 DUP1 MLOAD PUSH1 0xE0 DUP2 ADD DUP3 MSTORE DUP3 DUP2 MSTORE PUSH1 0x1 PUSH1 0x1 PUSH1 0xA0 SHL SUB DUP1 DUP9 AND PUSH1 0x20 DUP1 DUP5 ADD DUP3 DUP2 MSTORE DUP5 DUP7 ADD DUP11 DUP2 MSTORE CALLER PUSH1 0x60 DUP8 ADD DUP2 DUP2 MSTORE ADDRESS PUSH1 0x80 DUP10 ADD DUP2 DUP2 MSTORE PUSH1 0xA0 DUP11 ADD DUP15 DUP2 MSTORE PUSH0 PUSH1 0xC0 DUP13 ADD DUP2 DUP2 MSTORE DUP15 DUP3 MSTORE PUSH1 0x6 SWAP10 DUP11 SWAP1 MSTORE SWAP1 DUP14 SWAP1 KECCAK256 SWAP12 MLOAD DUP13 SSTORE SWAP7 MLOAD PUSH1 0x1 DUP13 ADD DUP1 SLOAD SWAP2 DUP13 AND PUSH1 0x1 PUSH1 0x1 PUSH1 0xA0 SHL SUB NOT SWAP3 DUP4 AND OR SWAP1 SSTORE SWAP6 MLOAD PUSH1 0x2 DUP13 ADD SSTORE SWAP3 MLOAD PUSH1 0x3 DUP12 ADD DUP1 SLOAD SWAP2 DUP12 AND SWAP2 DUP8 AND SWAP2 SWAP1 SWAP2 OR SWAP1 SSTORE MLOAD PUSH1 0x4 DUP1 DUP12 ADD DUP1 SLOAD SWAP3 SWAP1 SWAP11 AND SWAP2 SWAP1 SWAP6 AND OR SWAP1 SWAP8 SSTORE MLOAD PUSH1 0x5 DUP9 ADD SSTORE SWAP2 MLOAD SWAP6 SWAP1 SWAP3 ADD DUP1 SLOAD SWAP6 ISZERO ISZERO PUSH1 0xFF NOT SWAP1 SWAP7 AND SWAP6 SWAP1 SWAP6 OR SWAP1 SWAP5 SSTORE SWAP4 MLOAD PUSH4 0x23B872DD PUSH1 0xE0 SHL DUP2 MSTORE SWAP5 SWAP6 POP SWAP4 PUSH4 0x23B872DD SWAP4 PUSH2 0x6CC SWAP4 SWAP3 SWAP2 DUP10 SWAP2 ADD PUSH2 0x1236 JUMP JUMPDEST PUSH0 PUSH1 0x40 MLOAD DUP1 DUP4 SUB DUP2 PUSH0 DUP8 DUP1 EXTCODESIZE ISZERO DUP1 ISZERO PUSH2 0x6E3 JUMPI PUSH0 DUP1 REVERT JUMPDEST POP GAS CALL ISZERO DUP1 ISZERO PUSH2 0x6F5 JUMPI RETURNDATASIZE PUSH0 DUP1 RETURNDATACOPY RETURNDATASIZE PUSH0 REVERT JUMPDEST POP POP POP POP DUP3 DUP5 PUSH1 0x1 PUSH1 0x1 PUSH1 0xA0 SHL SUB AND DUP3 PUSH32 0xF8551F8BE25732324FCDA411A126B3C851E038B0FF8D097A3951DDED3772F43F CALLER ADDRESS DUP8 PUSH0 PUSH1 0x40 MLOAD PUSH2 0x73A SWAP5 SWAP4 SWAP3 SWAP2 SWAP1 PUSH2 0x1280 JUMP JUMPDEST PUSH1 0x40 MLOAD DUP1 SWAP2 SUB SWAP1 LOG4 PUSH1 0x5 SLOAD PUSH1 0x3 SLOAD PUSH1 0x4 DUP1 SLOAD PUSH1 0x40 MLOAD PUSH4 0xA9059CBB PUSH1 0xE0 SHL DUP2 MSTORE PUSH1 0x1 PUSH1 0x1 PUSH1 0xA0 SHL SUB SWAP4 DUP5 AND SWAP3 DUP2 ADD SWAP3 SWAP1 SWAP3 MSTORE PUSH1 0x24 DUP3 ADD MSTORE SWAP2 AND SWAP1 PUSH4 0xA9059CBB SWAP1 PUSH1 0x44 ADD JUMPDEST PUSH1 0x20 PUSH1 0x40 MLOAD DUP1 DUP4 SUB DUP2 PUSH0 DUP8 GAS CALL ISZERO DUP1 ISZERO PUSH2 0x799 JUMPI RETURNDATASIZE PUSH0 DUP1 RETURNDATACOPY RETURNDATASIZE PUSH0 REVERT JUMPDEST POP POP POP POP PUSH1 0x40 MLOAD RETURNDATASIZE PUSH1 0x1F NOT PUSH1 0x1F DUP3 ADD AND DUP3 ADD DUP1 PUSH1 0x40 MSTORE POP DUP2 ADD SWAP1 PUSH2 0x7BD SWAP2 SWAP1 PUSH2 0x125A JUMP JUMPDEST POP POP PUSH2 0x7C8 PUSH1 0x1 PUSH0 SSTORE JUMP JUMPDEST POP POP POP JUMP JUMPDEST PUSH2 0x7D5 PUSH2 0xF8F JUMP JUMPDEST PUSH0 DUP3 DUP2 MSTORE PUSH1 0x6 PUSH1 0x20 MSTORE PUSH1 0x40 SWAP1 KECCAK256 PUSH1 0x4 ADD SLOAD PUSH1 0x1 PUSH1 0x1 PUSH1 0xA0 SHL SUB AND CALLER EQ PUSH2 0x80E JUMPI PUSH1 0x40 MLOAD PUSH4 0x84BDB6F9 PUSH1 0xE0 SHL DUP2 MSTORE PUSH1 0x4 ADD PUSH1 0x40 MLOAD DUP1 SWAP2 SUB SWAP1 REVERT JUMPDEST PUSH1 0x4 DUP1 SLOAD PUSH1 0x5 SLOAD PUSH1 0x40 MLOAD PUSH4 0x6EB1769F PUSH1 0xE1 SHL DUP2 MSTORE CALLER SWAP4 DUP2 ADD SWAP4 SWAP1 SWAP4 MSTORE ADDRESS PUSH1 0x24 DUP5 ADD MSTORE SWAP1 SWAP2 PUSH1 0x1 PUSH1 0x1 PUSH1 0xA0 SHL SUB SWAP1 SWAP2 AND SWAP1 PUSH4 0xDD62ED3E SWAP1 PUSH1 0x44 ADD PUSH1 0x20 PUSH1 0x40 MLOAD DUP1 DUP4 SUB DUP2 DUP7 GAS STATICCALL ISZERO DUP1 ISZERO PUSH2 0x862 JUMPI RETURNDATASIZE PUSH0 DUP1 RETURNDATACOPY RETURNDATASIZE PUSH0 REVERT JUMPDEST POP POP POP POP PUSH1 0x40 MLOAD RETURNDATASIZE PUSH1 0x1F NOT PUSH1 0x1F DUP3 ADD AND DUP3 ADD DUP1 PUSH1 0x40 MSTORE POP DUP2 ADD SWAP1 PUSH2 0x886 SWAP2 SWAP1 PUSH2 0x121F JUMP JUMPDEST LT ISZERO PUSH2 0x8A5 JUMPI PUSH1 0x40 MLOAD PUSH4 0x904FE83 PUSH1 0xE4 SHL DUP2 MSTORE PUSH1 0x4 ADD PUSH1 0x40 MLOAD DUP1 SWAP2 SUB SWAP1 REVERT JUMPDEST PUSH1 0x40 MLOAD PUSH4 0xA22CB465 PUSH1 0xE0 SHL DUP2 MSTORE ADDRESS PUSH1 0x4 DUP3 ADD MSTORE PUSH1 0x1 PUSH1 0x24 DUP3 ADD MSTORE PUSH1 0x1 PUSH1 0x1 PUSH1 0xA0 SHL SUB DUP5 AND SWAP1 PUSH4 0xA22CB465 SWAP1 PUSH1 0x44 ADD PUSH0 PUSH1 0x40 MLOAD DUP1 DUP4 SUB DUP2 PUSH0 DUP8 DUP1 EXTCODESIZE ISZERO DUP1 ISZERO PUSH2 0x8EA JUMPI PUSH0 DUP1 REVERT JUMPDEST POP GAS CALL ISZERO DUP1 ISZERO PUSH2 0x8FC JUMPI RETURNDATASIZE PUSH0 DUP1 RETURNDATACOPY RETURNDATASIZE PUSH0 REVERT JUMPDEST POP POP PUSH1 0x5 SLOAD PUSH1 0x4 DUP1 SLOAD PUSH1 0x40 MLOAD PUSH4 0x23B872DD PUSH1 0xE0 SHL DUP2 MSTORE PUSH1 0x1 PUSH1 0x1 PUSH1 0xA0 SHL SUB SWAP1 SWAP4 AND SWAP5 POP PUSH4 0x23B872DD SWAP4 POP PUSH2 0x935 SWAP3 CALLER SWAP3 ADDRESS SWAP3 SWAP2 ADD PUSH2 0x1236 JUMP JUMPDEST PUSH1 0x20 PUSH1 0x40 MLOAD DUP1 DUP4 SUB DUP2 PUSH0 DUP8 GAS CALL ISZERO DUP1 ISZERO PUSH2 0x951 JUMPI RETURNDATASIZE PUSH0 DUP1 RETURNDATACOPY RETURNDATASIZE PUSH0 REVERT JUMPDEST POP POP POP POP PUSH1 0x40 MLOAD RETURNDATASIZE PUSH1 0x1F NOT PUSH1 0x1F DUP3 ADD AND DUP3 ADD DUP1 PUSH1 0x40 MSTORE POP DUP2 ADD SWAP1 PUSH2 0x975 SWAP2 SWAP1 PUSH2 0x125A JUMP JUMPDEST POP PUSH0 DUP3 DUP2 MSTORE PUSH1 0x6 PUSH1 0x20 DUP2 SWAP1 MSTORE PUSH1 0x40 SWAP1 SWAP2 KECCAK256 SWAP1 DUP2 ADD DUP1 SLOAD PUSH1 0xFF NOT AND SWAP1 SSTORE PUSH1 0x5 DUP2 ADD DUP3 SWAP1 SSTORE PUSH1 0x3 DUP2 ADD DUP1 SLOAD PUSH1 0x1 PUSH1 0x1 PUSH1 0xA0 SHL SUB NOT SWAP1 DUP2 AND CALLER OR SWAP1 SWAP2 SSTORE PUSH1 0x4 SWAP1 SWAP2 ADD DUP1 SLOAD SWAP1 SWAP2 AND ADDRESS OR SWAP1 SSTORE PUSH2 0x9C7 PUSH1 0x2 PUSH2 0xFEB JUMP JUMPDEST PUSH0 DUP3 DUP2 MSTORE PUSH1 0x6 PUSH1 0x20 MSTORE PUSH1 0x40 SWAP1 DUP2 SWAP1 KECCAK256 PUSH1 0x2 ADD SLOAD SWAP1 MLOAD PUSH4 0x23B872DD PUSH1 0xE0 SHL DUP2 MSTORE PUSH1 0x1 PUSH1 0x1 PUSH1 0xA0 SHL SUB DUP6 AND SWAP1 PUSH4 0x23B872DD SWAP1 PUSH2 0xA09 SWAP1 CALLER SWAP1 ADDRESS SWAP1 DUP7 SWAP1 PUSH1 0x4 ADD PUSH2 0x1236 JUMP JUMPDEST PUSH0 PUSH1 0x40 MLOAD DUP1 DUP4 SUB DUP2 PUSH0 DUP8 DUP1 EXTCODESIZE ISZERO DUP1 ISZERO PUSH2 0xA20 JUMPI PUSH0 DUP1 REVERT JUMPDEST POP GAS CALL ISZERO DUP1 ISZERO PUSH2 0xA32 JUMPI RETURNDATASIZE PUSH0 DUP1 RETURNDATACOPY RETURNDATASIZE PUSH0 REVERT JUMPDEST POP POP POP POP DUP1 DUP5 PUSH1 0x1 PUSH1 0x1 PUSH1 0xA0 SHL SUB AND PUSH32 0x52679D6CF973DFF612DE0D67AD1642E7B8B401DCB1C41EA86BF35B82AC6BF88 CALLER ADDRESS DUP7 PUSH0 PUSH1 0x40 MLOAD PUSH2 0xA76 SWAP5 SWAP4 SWAP3 SWAP2 SWAP1 PUSH2 0x1280 JUMP JUMPDEST PUSH1 0x40 MLOAD DUP1 SWAP2 SUB SWAP1 LOG3 PUSH1 0x5 SLOAD PUSH1 0x3 SLOAD PUSH1 0x4 DUP1 SLOAD PUSH1 0x40 MLOAD PUSH4 0xA9059CBB PUSH1 0xE0 SHL DUP2 MSTORE PUSH1 0x1 PUSH1 0x1 PUSH1 0xA0 SHL SUB SWAP4 DUP5 AND SWAP3 DUP2 ADD SWAP3 SWAP1 SWAP3 MSTORE PUSH1 0x24 DUP3 ADD MSTORE SWAP2 AND SWAP1 PUSH4 0xA9059CBB SWAP1 PUSH1 0x44 ADD PUSH2 0x77D JUMP JUMPDEST PUSH2 0xAC5 PUSH2 0xF8F JUMP JUMPDEST PUSH0 DUP2 DUP2 MSTORE PUSH1 0x6 PUSH1 0x20 MSTORE PUSH1 0x40 SWAP1 DUP2 SWAP1 KECCAK256 PUSH1 0x5 DUP1 DUP3 ADD SLOAD PUSH1 0x2 DUP4 ADD SLOAD PUSH1 0x3 SWAP1 SWAP4 ADD SLOAD SWAP2 SLOAD SWAP4 MLOAD PUSH4 0x6EB1769F PUSH1 0xE1 SHL DUP2 MSTORE CALLER PUSH1 0x4 DUP3 ADD MSTORE ADDRESS PUSH1 0x24 DUP3 ADD MSTORE SWAP1 SWAP4 PUSH1 0x1 PUSH1 0x1 PUSH1 0xA0 SHL SUB SWAP3 DUP4 AND SWAP3 DUP6 SWAP3 SWAP2 AND SWAP1 PUSH4 0xDD62ED3E SWAP1 PUSH1 0x44 ADD PUSH1 0x20 PUSH1 0x40 MLOAD DUP1 DUP4 SUB DUP2 DUP7 GAS STATICCALL ISZERO DUP1 ISZERO PUSH2 0xB36 JUMPI RETURNDATASIZE PUSH0 DUP1 RETURNDATACOPY RETURNDATASIZE PUSH0 REVERT JUMPDEST POP POP POP POP PUSH1 0x40 MLOAD RETURNDATASIZE PUSH1 0x1F NOT PUSH1 0x1F DUP3 ADD AND DUP3 ADD DUP1 PUSH1 0x40 MSTORE POP DUP2 ADD SWAP1 PUSH2 0xB5A SWAP2 SWAP1 PUSH2 0x121F JUMP JUMPDEST LT ISZERO PUSH2 0xB79 JUMPI PUSH1 0x40 MLOAD PUSH4 0x904FE83 PUSH1 0xE4 SHL DUP2 MSTORE PUSH1 0x4 ADD PUSH1 0x40 MLOAD DUP1 SWAP2 SUB SWAP1 REVERT JUMPDEST PUSH1 0x5 SLOAD PUSH1 0x40 MLOAD PUSH4 0x23B872DD PUSH1 0xE0 SHL DUP2 MSTORE PUSH1 0x1 PUSH1 0x1 PUSH1 0xA0 SHL SUB SWAP1 SWAP2 AND SWAP1 PUSH4 0x23B872DD SWAP1 PUSH2 0xBAD SWAP1 CALLER SWAP1 ADDRESS SWAP1 DUP9 SWAP1 PUSH1 0x4 ADD PUSH2 0x1236 JUMP JUMPDEST PUSH1 0x20 PUSH1 0x40 MLOAD DUP1 DUP4 SUB DUP2 PUSH0 DUP8 GAS CALL ISZERO DUP1 ISZERO PUSH2 0xBC9 JUMPI RETURNDATASIZE PUSH0 DUP1 RETURNDATACOPY RETURNDATASIZE PUSH0 REVERT JUMPDEST POP POP POP POP PUSH1 0x40 MLOAD RETURNDATASIZE PUSH1 0x1F NOT PUSH1 0x1F DUP3 ADD AND DUP3 ADD DUP1 PUSH1 0x40 MSTORE POP DUP2 ADD SWAP1 PUSH2 0xBED SWAP2 SWAP1 PUSH2 0x125A JUMP JUMPDEST POP PUSH1 0x40 MLOAD PUSH4 0x23B872DD PUSH1 0xE0 SHL DUP2 MSTORE PUSH1 0x1 PUSH1 0x1 PUSH1 0xA0 SHL SUB DUP7 AND SWAP1 PUSH4 0x23B872DD SWAP1 PUSH2 0xC1E SWAP1 ADDRESS SWAP1 CALLER SWAP1 DUP8 SWAP1 PUSH1 0x4 ADD PUSH2 0x1236 JUMP JUMPDEST PUSH0 PUSH1 0x40 MLOAD DUP1 DUP4 SUB DUP2 PUSH0 DUP8 DUP1 EXTCODESIZE ISZERO DUP1 ISZERO PUSH2 0xC35 JUMPI PUSH0 DUP1 REVERT JUMPDEST POP GAS CALL ISZERO DUP1 ISZERO PUSH2 0xC47 JUMPI RETURNDATASIZE PUSH0 DUP1 RETURNDATACOPY RETURNDATASIZE PUSH0 REVERT JUMPDEST POP POP PUSH1 0x5 SLOAD PUSH1 0x40 MLOAD PUSH4 0xA9059CBB PUSH1 0xE0 SHL DUP2 MSTORE PUSH1 0x1 PUSH1 0x1 PUSH1 0xA0 SHL SUB DUP6 DUP2 AND PUSH1 0x4 DUP4 ADD MSTORE PUSH1 0x24 DUP3 ADD DUP9 SWAP1 MSTORE SWAP1 SWAP2 AND SWAP3 POP PUSH4 0xA9059CBB SWAP2 POP PUSH1 0x44 ADD PUSH1 0x20 PUSH1 0x40 MLOAD DUP1 DUP4 SUB DUP2 PUSH0 DUP8 GAS CALL ISZERO DUP1 ISZERO PUSH2 0xC9B JUMPI RETURNDATASIZE PUSH0 DUP1 RETURNDATACOPY RETURNDATASIZE PUSH0 REVERT JUMPDEST POP POP POP POP PUSH1 0x40 MLOAD RETURNDATASIZE PUSH1 0x1F NOT PUSH1 0x1F DUP3 ADD AND DUP3 ADD DUP1 PUSH1 0x40 MSTORE POP DUP2 ADD SWAP1 PUSH2 0xCBF SWAP2 SWAP1 PUSH2 0x125A JUMP JUMPDEST POP PUSH0 DUP5 DUP2 MSTORE PUSH1 0x6 PUSH1 0x20 DUP2 SWAP1 MSTORE PUSH1 0x40 SWAP1 SWAP2 KECCAK256 PUSH1 0x4 DUP2 ADD DUP1 SLOAD PUSH1 0x1 PUSH1 0x1 PUSH1 0xA0 SHL SUB NOT AND CALLER OR SWAP1 SSTORE ADD DUP1 SLOAD PUSH1 0xFF NOT AND PUSH1 0x1 OR SWAP1 SSTORE PUSH2 0xCFE PUSH1 0x2 DUP1 SLOAD PUSH1 0x1 ADD SWAP1 SSTORE JUMP JUMPDEST DUP2 DUP6 PUSH1 0x1 PUSH1 0x1 PUSH1 0xA0 SHL SUB AND PUSH32 0x9A9F9FAF9D964B2FB1888CDF05202BAF5A1B99D45F7AFD6A5E062AC544B3C150 ADDRESS CALLER DUP8 PUSH1 0x1 PUSH1 0x40 MLOAD PUSH2 0xD3F SWAP5 SWAP4 SWAP3 SWAP2 SWAP1 PUSH2 0x1280 JUMP JUMPDEST PUSH1 0x40 MLOAD DUP1 SWAP2 SUB SWAP1 LOG3 POP POP POP PUSH2 0xD53 PUSH1 0x1 PUSH0 SSTORE JUMP JUMPDEST POP POP JUMP JUMPDEST PUSH2 0xD5F PUSH2 0x1041 JUMP JUMPDEST POP PUSH0 SWAP1 DUP2 MSTORE PUSH1 0x6 PUSH1 0x20 DUP2 DUP2 MSTORE PUSH1 0x40 SWAP3 DUP4 SWAP1 KECCAK256 DUP4 MLOAD PUSH1 0xE0 DUP2 ADD DUP6 MSTORE DUP2 SLOAD DUP2 MSTORE PUSH1 0x1 DUP3 ADD SLOAD PUSH1 0x1 PUSH1 0x1 PUSH1 0xA0 SHL SUB SWAP1 DUP2 AND SWAP4 DUP3 ADD SWAP4 SWAP1 SWAP4 MSTORE PUSH1 0x2 DUP3 ADD SLOAD SWAP5 DUP2 ADD SWAP5 SWAP1 SWAP5 MSTORE PUSH1 0x3 DUP2 ADD SLOAD DUP3 AND PUSH1 0x60 DUP6 ADD MSTORE PUSH1 0x4 DUP2 ADD SLOAD SWAP1 SWAP2 AND PUSH1 0x80 DUP5 ADD MSTORE PUSH1 0x5 DUP2 ADD SLOAD PUSH1 0xA0 DUP5 ADD MSTORE ADD SLOAD PUSH1 0xFF AND ISZERO ISZERO PUSH1 0xC0 DUP3 ADD MSTORE SWAP1 JUMP JUMPDEST PUSH1 0x60 PUSH0 PUSH2 0xDDE PUSH1 0x1 SLOAD SWAP1 JUMP JUMPDEST SWAP1 POP PUSH0 DUP1 PUSH0 JUMPDEST DUP4 DUP2 LT ISZERO PUSH2 0xE32 JUMPI CALLER PUSH1 0x6 PUSH0 PUSH2 0xDFB DUP5 PUSH1 0x1 PUSH2 0x11F8 JUMP JUMPDEST DUP2 MSTORE PUSH1 0x20 DUP2 ADD SWAP2 SWAP1 SWAP2 MSTORE PUSH1 0x40 ADD PUSH0 KECCAK256 PUSH1 0x3 ADD SLOAD PUSH1 0x1 PUSH1 0x1 PUSH1 0xA0 SHL SUB AND SUB PUSH2 0xE2A JUMPI PUSH2 0xE27 PUSH1 0x1 DUP5 PUSH2 0x11F8 JUMP JUMPDEST SWAP3 POP JUMPDEST PUSH1 0x1 ADD PUSH2 0xDE4 JUMP JUMPDEST POP PUSH0 DUP3 PUSH8 0xFFFFFFFFFFFFFFFF DUP2 GT ISZERO PUSH2 0xE4D JUMPI PUSH2 0xE4D PUSH2 0x11E4 JUMP JUMPDEST PUSH1 0x40 MLOAD SWAP1 DUP1 DUP3 MSTORE DUP1 PUSH1 0x20 MUL PUSH1 0x20 ADD DUP3 ADD PUSH1 0x40 MSTORE DUP1 ISZERO PUSH2 0xE86 JUMPI DUP2 PUSH1 0x20 ADD JUMPDEST PUSH2 0xE73 PUSH2 0x1041 JUMP JUMPDEST DUP2 MSTORE PUSH1 0x20 ADD SWAP1 PUSH1 0x1 SWAP1 SUB SWAP1 DUP2 PUSH2 0xE6B JUMPI SWAP1 POP JUMPDEST POP SWAP1 POP PUSH0 JUMPDEST DUP5 DUP2 LT ISZERO PUSH2 0x2D9 JUMPI CALLER PUSH1 0x6 PUSH0 PUSH2 0xEA2 DUP5 PUSH1 0x1 PUSH2 0x11F8 JUMP JUMPDEST DUP2 MSTORE PUSH1 0x20 DUP2 ADD SWAP2 SWAP1 SWAP2 MSTORE PUSH1 0x40 ADD PUSH0 KECCAK256 PUSH1 0x3 ADD SLOAD PUSH1 0x1 PUSH1 0x1 PUSH1 0xA0 SHL SUB AND SUB PUSH2 0xF87 JUMPI PUSH0 PUSH1 0x6 DUP2 PUSH2 0xED2 DUP5 PUSH1 0x1 PUSH2 0x11F8 JUMP JUMPDEST DUP2 MSTORE PUSH1 0x20 DUP1 DUP3 ADD SWAP3 SWAP1 SWAP3 MSTORE PUSH1 0x40 SWAP1 DUP2 ADD PUSH0 SWAP1 DUP2 KECCAK256 SLOAD DUP1 DUP3 MSTORE PUSH1 0x6 DUP1 DUP6 MSTORE SWAP2 DUP4 SWAP1 KECCAK256 DUP4 MLOAD PUSH1 0xE0 DUP2 ADD DUP6 MSTORE DUP2 SLOAD DUP2 MSTORE PUSH1 0x1 DUP3 ADD SLOAD PUSH1 0x1 PUSH1 0x1 PUSH1 0xA0 SHL SUB SWAP1 DUP2 AND SWAP7 DUP3 ADD SWAP7 SWAP1 SWAP7 MSTORE PUSH1 0x2 DUP3 ADD SLOAD SWAP5 DUP2 ADD SWAP5 SWAP1 SWAP5 MSTORE PUSH1 0x3 DUP2 ADD SLOAD DUP6 AND PUSH1 0x60 DUP6 ADD MSTORE PUSH1 0x4 DUP2 ADD SLOAD SWAP1 SWAP5 AND PUSH1 0x80 DUP5 ADD MSTORE PUSH1 0x5 DUP5 ADD SLOAD PUSH1 0xA0 DUP5 ADD MSTORE SWAP3 ADD SLOAD PUSH1 0xFF AND ISZERO ISZERO PUSH1 0xC0 DUP3 ADD MSTORE DUP5 MLOAD SWAP2 SWAP3 POP SWAP1 DUP2 SWAP1 DUP6 SWAP1 DUP8 SWAP1 DUP2 LT PUSH2 0xF6C JUMPI PUSH2 0xF6C PUSH2 0x120B JUMP JUMPDEST PUSH1 0x20 SWAP1 DUP2 MUL SWAP2 SWAP1 SWAP2 ADD ADD MSTORE PUSH2 0xF82 PUSH1 0x1 DUP7 PUSH2 0x11F8 JUMP JUMPDEST SWAP5 POP POP POP JUMPDEST PUSH1 0x1 ADD PUSH2 0xE8B JUMP JUMPDEST PUSH1 0x2 PUSH0 SLOAD SUB PUSH2 0xFE5 JUMPI PUSH1 0x40 MLOAD PUSH3 0x461BCD PUSH1 0xE5 SHL DUP2 MSTORE PUSH1 0x20 PUSH1 0x4 DUP3 ADD MSTORE PUSH1 0x1F PUSH1 0x24 DUP3 ADD MSTORE PUSH32 0x5265656E7472616E637947756172643A207265656E7472616E742063616C6C00 PUSH1 0x44 DUP3 ADD MSTORE PUSH1 0x64 ADD JUMPDEST PUSH1 0x40 MLOAD DUP1 SWAP2 SUB SWAP1 REVERT JUMPDEST PUSH1 0x2 PUSH0 SSTORE JUMP JUMPDEST DUP1 SLOAD DUP1 PUSH2 0x103A JUMPI PUSH1 0x40 MLOAD PUSH3 0x461BCD PUSH1 0xE5 SHL DUP2 MSTORE PUSH1 0x20 PUSH1 0x4 DUP3 ADD MSTORE PUSH1 0x1B PUSH1 0x24 DUP3 ADD MSTORE PUSH32 0x436F756E7465723A2064656372656D656E74206F766572666C6F770000000000 PUSH1 0x44 DUP3 ADD MSTORE PUSH1 0x64 ADD PUSH2 0xFDC JUMP JUMPDEST PUSH0 NOT ADD SWAP1 SSTORE JUMP JUMPDEST PUSH1 0x40 DUP1 MLOAD PUSH1 0xE0 DUP2 ADD DUP3 MSTORE PUSH0 DUP1 DUP3 MSTORE PUSH1 0x20 DUP3 ADD DUP2 SWAP1 MSTORE SWAP2 DUP2 ADD DUP3 SWAP1 MSTORE PUSH1 0x60 DUP2 ADD DUP3 SWAP1 MSTORE PUSH1 0x80 DUP2 ADD DUP3 SWAP1 MSTORE PUSH1 0xA0 DUP2 ADD DUP3 SWAP1 MSTORE PUSH1 0xC0 DUP2 ADD SWAP2 SWAP1 SWAP2 MSTORE SWAP1 JUMP JUMPDEST DUP1 MLOAD DUP3 MSTORE PUSH1 0x20 DUP1 DUP3 ADD MLOAD PUSH1 0x1 PUSH1 0x1 PUSH1 0xA0 SHL SUB SWAP1 DUP2 AND SWAP2 DUP5 ADD SWAP2 SWAP1 SWAP2 MSTORE PUSH1 0x40 DUP1 DUP4 ADD MLOAD SWAP1 DUP5 ADD MSTORE PUSH1 0x60 DUP1 DUP4 ADD MLOAD DUP3 AND SWAP1 DUP5 ADD MSTORE PUSH1 0x80 DUP1 DUP4 ADD MLOAD SWAP1 SWAP2 AND SWAP1 DUP4 ADD MSTORE PUSH1 0xA0 DUP1 DUP3 ADD MLOAD SWAP1 DUP4 ADD MSTORE PUSH1 0xC0 SWAP1 DUP2 ADD MLOAD ISZERO ISZERO SWAP2 ADD MSTORE JUMP JUMPDEST PUSH1 0x20 DUP1 DUP3 MSTORE DUP3 MLOAD DUP3 DUP3 ADD DUP2 SWAP1 MSTORE PUSH0 SWAP2 DUP5 ADD SWAP1 PUSH1 0x40 DUP5 ADD SWAP1 DUP4 JUMPDEST DUP2 DUP2 LT ISZERO PUSH2 0x1114 JUMPI PUSH2 0x10FE DUP4 DUP6 MLOAD PUSH2 0x107C JUMP JUMPDEST PUSH1 0x20 SWAP4 SWAP1 SWAP4 ADD SWAP3 PUSH1 0xE0 SWAP3 SWAP1 SWAP3 ADD SWAP2 PUSH1 0x1 ADD PUSH2 0x10EB JUMP JUMPDEST POP SWAP1 SWAP6 SWAP5 POP POP POP POP POP JUMP JUMPDEST DUP1 CALLDATALOAD PUSH1 0x1 PUSH1 0x1 PUSH1 0xA0 SHL SUB DUP2 AND DUP2 EQ PUSH2 0x1135 JUMPI PUSH0 DUP1 REVERT JUMPDEST SWAP2 SWAP1 POP JUMP JUMPDEST PUSH0 DUP1 PUSH0 PUSH1 0x60 DUP5 DUP7 SUB SLT ISZERO PUSH2 0x114C JUMPI PUSH0 DUP1 REVERT JUMPDEST PUSH2 0x1155 DUP5 PUSH2 0x111F JUMP JUMPDEST SWAP6 PUSH1 0x20 DUP6 ADD CALLDATALOAD SWAP6 POP PUSH1 0x40 SWAP1 SWAP5 ADD CALLDATALOAD SWAP4 SWAP3 POP POP POP JUMP JUMPDEST PUSH0 DUP1 PUSH1 0x40 DUP4 DUP6 SUB SLT ISZERO PUSH2 0x117B JUMPI PUSH0 DUP1 REVERT JUMPDEST PUSH2 0x1184 DUP4 PUSH2 0x111F JUMP JUMPDEST SWAP5 PUSH1 0x20 SWAP4 SWAP1 SWAP4 ADD CALLDATALOAD SWAP4 POP POP POP JUMP JUMPDEST PUSH0 PUSH1 0x20 DUP3 DUP5 SUB SLT ISZERO PUSH2 0x11A2 JUMPI PUSH0 DUP1 REVERT JUMPDEST POP CALLDATALOAD SWAP2 SWAP1 POP JUMP JUMPDEST PUSH1 0xE0 DUP2 ADD PUSH2 0x11B7 DUP3 DUP5 PUSH2 0x107C JUMP JUMPDEST SWAP3 SWAP2 POP POP JUMP JUMPDEST PUSH4 0x4E487B71 PUSH1 0xE0 SHL PUSH0 MSTORE PUSH1 0x11 PUSH1 0x4 MSTORE PUSH1 0x24 PUSH0 REVERT JUMPDEST DUP2 DUP2 SUB DUP2 DUP2 GT ISZERO PUSH2 0x11B7 JUMPI PUSH2 0x11B7 PUSH2 0x11BD JUMP JUMPDEST PUSH4 0x4E487B71 PUSH1 0xE0 SHL PUSH0 MSTORE PUSH1 0x41 PUSH1 0x4 MSTORE PUSH1 0x24 PUSH0 REVERT JUMPDEST DUP1 DUP3 ADD DUP1 DUP3 GT ISZERO PUSH2 0x11B7 JUMPI PUSH2 0x11B7 PUSH2 0x11BD JUMP JUMPDEST PUSH4 0x4E487B71 PUSH1 0xE0 SHL PUSH0 MSTORE PUSH1 0x32 PUSH1 0x4 MSTORE PUSH1 0x24 PUSH0 REVERT JUMPDEST PUSH0 PUSH1 0x20 DUP3 DUP5 SUB SLT ISZERO PUSH2 0x122F JUMPI PUSH0 DUP1 REVERT JUMPDEST POP MLOAD SWAP2 SWAP1 POP JUMP JUMPDEST PUSH1 0x1 PUSH1 0x1 PUSH1 0xA0 SHL SUB SWAP4 DUP5 AND DUP2 MSTORE SWAP2 SWAP1 SWAP3 AND PUSH1 0x20 DUP3 ADD MSTORE PUSH1 0x40 DUP2 ADD SWAP2 SWAP1 SWAP2 MSTORE PUSH1 0x60 ADD SWAP1 JUMP JUMPDEST PUSH0 PUSH1 0x20 DUP3 DUP5 SUB SLT ISZERO PUSH2 0x126A JUMPI PUSH0 DUP1 REVERT JUMPDEST DUP2 MLOAD DUP1 ISZERO ISZERO DUP2 EQ PUSH2 0x1279 JUMPI PUSH0 DUP1 REVERT JUMPDEST SWAP4 SWAP3 POP POP POP JUMP JUMPDEST PUSH1 0x1 PUSH1 0x1 PUSH1 0xA0 SHL SUB SWAP5 DUP6 AND DUP2 MSTORE SWAP3 SWAP1 SWAP4 AND PUSH1 0x20 DUP4 ADD MSTORE PUSH1 0x40 DUP3 ADD MSTORE SWAP1 ISZERO ISZERO PUSH1 0x60 DUP3 ADD MSTORE PUSH1 0x80 ADD SWAP1 JUMP INVALID LOG2 PUSH5 0x6970667358 0x22 SLT KECCAK256 0x25 0xEC DUP2 0xB5 0xB1 ISZERO MUL LOG4 GASPRICE MSIZE EQ 0xC9 EXP 0xF8 SWAP16 SDIV SWAP10 0xA7 PUSH18 0x90CC3C1238A95148EC49421BB564736F6C63 NUMBER STOP ADDMOD BYTE STOP CALLER "
		},
		"gasEstimates": {
			"creation": {
				"codeDepositCost": "966200",
				"executionCost": "infinite",
				"totalCost": "infinite"
			},
			"external": {
				"buyItem(address,uint256)": "infinite",
				"getAllListedItems()": "infinite",
				"getListingPrice()": "2269",
				"getOwnerListedItems()": "infinite",
				"getParticularItem(uint256)": "15857",
				"getSellerListedItems()": "infinite",
				"listItem(address,uint256,uint256)": "infinite",
				"resellItem(address,uint256,uint256)": "infinite",
				"tradingToken()": "2359"
			}
		},
		"methodIdentifiers": {
			"buyItem(address,uint256)": "9f37092a",
			"getAllListedItems()": "3b1b1ad0",
			"getListingPrice()": "12e85585",
			"getOwnerListedItems()": "4d757a1c",
			"getParticularItem(uint256)": "f2a7a2b4",
			"getSellerListedItems()": "f9319c53",
			"listItem(address,uint256,uint256)": "89bfd38f",
			"resellItem(address,uint256,uint256)": "8f0af0f9",
			"tradingToken()": "2ad8a220"
		}
	},
	"abi": [
		{
			"inputs": [
				{
					"internalType": "address",
					"name": "_erc20Address",
					"type": "address"
				}
			],
			"stateMutability": "nonpayable",
			"type": "constructor"
		},
		{
			"inputs": [],
			"name": "NFTMarketplace__ItemPriceIsZero",
			"type": "error"
		},
		{
			"inputs": [],
			"name": "NFTMarketplace__ListingPriceIsNotMet",
			"type": "error"
		},
		{
			"inputs": [],
			"name": "NFTMarketplace__YouAreNotOwnerOfThisItem",
			"type": "error"
		},
		{
			"anonymous": false,
			"inputs": [
				{
					"indexed": true,
					"internalType": "address",
					"name": "nftAddress",
					"type": "address"
				},
				{
					"indexed": true,
					"internalType": "uint256",
					"name": "tokenId",
					"type": "uint256"
				},
				{
					"indexed": false,
					"internalType": "address",
					"name": "seller",
					"type": "address"
				},
				{
					"indexed": false,
					"internalType": "address",
					"name": "owner",
					"type": "address"
				},
				{
					"indexed": false,
					"internalType": "uint256",
					"name": "price",
					"type": "uint256"
				},
				{
					"indexed": false,
					"internalType": "bool",
					"name": "sold",
					"type": "bool"
				}
			],
			"name": "ItemBought",
			"type": "event"
		},
		{
			"anonymous": false,
			"inputs": [
				{
					"indexed": true,
					"internalType": "uint256",
					"name": "itemId",
					"type": "uint256"
				},
				{
					"indexed": true,
					"internalType": "address",
					"name": "nftAddress",
					"type": "address"
				},
				{
					"indexed": true,
					"internalType": "uint256",
					"name": "tokenId",
					"type": "uint256"
				},
				{
					"indexed": false,
					"internalType": "address",
					"name": "seller",
					"type": "address"
				},
				{
					"indexed": false,
					"internalType": "address",
					"name": "owner",
					"type": "address"
				},
				{
					"indexed": false,
					"internalType": "uint256",
					"name": "price",
					"type": "uint256"
				},
				{
					"indexed": false,
					"internalType": "bool",
					"name": "sold",
					"type": "bool"
				}
			],
			"name": "ItemList",
			"type": "event"
		},
		{
			"anonymous": false,
			"inputs": [
				{
					"indexed": true,
					"internalType": "address",
					"name": "nftAddress",
					"type": "address"
				},
				{
					"indexed": true,
					"internalType": "uint256",
					"name": "tokenId",
					"type": "uint256"
				},
				{
					"indexed": false,
					"internalType": "address",
					"name": "seller",
					"type": "address"
				},
				{
					"indexed": false,
					"internalType": "address",
					"name": "owner",
					"type": "address"
				},
				{
					"indexed": false,
					"internalType": "uint256",
					"name": "price",
					"type": "uint256"
				},
				{
					"indexed": false,
					"internalType": "bool",
					"name": "sold",
					"type": "bool"
				}
			],
			"name": "ItemResell",
			"type": "event"
		},
		{
			"inputs": [
				{
					"internalType": "address",
					"name": "_nftAddress",
					"type": "address"
				},
				{
					"internalType": "uint256",
					"name": "_itemId",
					"type": "uint256"
				}
			],
			"name": "buyItem",
			"outputs": [],
			"stateMutability": "nonpayable",
			"type": "function"
		},
		{
			"inputs": [],
			"name": "getAllListedItems",
			"outputs": [
				{
					"components": [
						{
							"internalType": "uint256",
							"name": "itemId",
							"type": "uint256"
						},
						{
							"internalType": "address",
							"name": "nftContract",
							"type": "address"
						},
						{
							"internalType": "uint256",
							"name": "tokenId",
							"type": "uint256"
						},
						{
							"internalType": "address",
							"name": "seller",
							"type": "address"
						},
						{
							"internalType": "address",
							"name": "owner",
							"type": "address"
						},
						{
							"internalType": "uint256",
							"name": "price",
							"type": "uint256"
						},
						{
							"internalType": "bool",
							"name": "sold",
							"type": "bool"
						}
					],
					"internalType": "struct NFTMarketplace.Item[]",
					"name": "",
					"type": "tuple[]"
				}
			],
			"stateMutability": "view",
			"type": "function"
		},
		{
			"inputs": [],
			"name": "getListingPrice",
			"outputs": [
				{
					"internalType": "uint256",
					"name": "",
					"type": "uint256"
				}
			],
			"stateMutability": "view",
			"type": "function"
		},
		{
			"inputs": [],
			"name": "getOwnerListedItems",
			"outputs": [
				{
					"components": [
						{
							"internalType": "uint256",
							"name": "itemId",
							"type": "uint256"
						},
						{
							"internalType": "address",
							"name": "nftContract",
							"type": "address"
						},
						{
							"internalType": "uint256",
							"name": "tokenId",
							"type": "uint256"
						},
						{
							"internalType": "address",
							"name": "seller",
							"type": "address"
						},
						{
							"internalType": "address",
							"name": "owner",
							"type": "address"
						},
						{
							"internalType": "uint256",
							"name": "price",
							"type": "uint256"
						},
						{
							"internalType": "bool",
							"name": "sold",
							"type": "bool"
						}
					],
					"internalType": "struct NFTMarketplace.Item[]",
					"name": "",
					"type": "tuple[]"
				}
			],
			"stateMutability": "view",
			"type": "function"
		},
		{
			"inputs": [
				{
					"internalType": "uint256",
					"name": "_itemId",
					"type": "uint256"
				}
			],
			"name": "getParticularItem",
			"outputs": [
				{
					"components": [
						{
							"internalType": "uint256",
							"name": "itemId",
							"type": "uint256"
						},
						{
							"internalType": "address",
							"name": "nftContract",
							"type": "address"
						},
						{
							"internalType": "uint256",
							"name": "tokenId",
							"type": "uint256"
						},
						{
							"internalType": "address",
							"name": "seller",
							"type": "address"
						},
						{
							"internalType": "address",
							"name": "owner",
							"type": "address"
						},
						{
							"internalType": "uint256",
							"name": "price",
							"type": "uint256"
						},
						{
							"internalType": "bool",
							"name": "sold",
							"type": "bool"
						}
					],
					"internalType": "struct NFTMarketplace.Item",
					"name": "",
					"type": "tuple"
				}
			],
			"stateMutability": "view",
			"type": "function"
		},
		{
			"inputs": [],
			"name": "getSellerListedItems",
			"outputs": [
				{
					"components": [
						{
							"internalType": "uint256",
							"name": "itemId",
							"type": "uint256"
						},
						{
							"internalType": "address",
							"name": "nftContract",
							"type": "address"
						},
						{
							"internalType": "uint256",
							"name": "tokenId",
							"type": "uint256"
						},
						{
							"internalType": "address",
							"name": "seller",
							"type": "address"
						},
						{
							"internalType": "address",
							"name": "owner",
							"type": "address"
						},
						{
							"internalType": "uint256",
							"name": "price",
							"type": "uint256"
						},
						{
							"internalType": "bool",
							"name": "sold",
							"type": "bool"
						}
					],
					"internalType": "struct NFTMarketplace.Item[]",
					"name": "",
					"type": "tuple[]"
				}
			],
			"stateMutability": "view",
			"type": "function"
		},
		{
			"inputs": [
				{
					"internalType": "address",
					"name": "_nftAddress",
					"type": "address"
				},
				{
					"internalType": "uint256",
					"name": "_tokenId",
					"type": "uint256"
				},
				{
					"internalType": "uint256",
					"name": "_price",
					"type": "uint256"
				}
			],
			"name": "listItem",
			"outputs": [],
			"stateMutability": "nonpayable",
			"type": "function"
		},
		{
			"inputs": [
				{
					"internalType": "address",
					"name": "_nftAddress",
					"type": "address"
				},
				{
					"internalType": "uint256",
					"name": "_itemId",
					"type": "uint256"
				},
				{
					"internalType": "uint256",
					"name": "_price",
					"type": "uint256"
				}
			],
			"name": "resellItem",
			"outputs": [],
			"stateMutability": "nonpayable",
			"type": "function"
		},
		{
			"inputs": [],
			"name": "tradingToken",
			"outputs": [
				{
					"internalType": "contract IERC20",
					"name": "",
					"type": "address"
				}
			],
			"stateMutability": "view",
			"type": "function"
		}
	]
}